{
  "_format": "hh-sol-artifact-1",
  "contractName": "TripStorage",
  "sourceName": "contracts/TripStorage.sol",
  "abi": [
    {
      "anonymous": false,
      "inputs": [
        {
          "indexed": false,
          "internalType": "uint256",
          "name": "tripId",
          "type": "uint256"
        },
        {
          "indexed": false,
          "internalType": "address",
          "name": "tripOwner",
          "type": "address"
        },
        {
          "indexed": false,
          "internalType": "string",
          "name": "distance",
          "type": "string"
        },
        {
          "indexed": false,
          "internalType": "uint256",
          "name": "startTime",
          "type": "uint256"
        },
        {
          "indexed": false,
          "internalType": "string",
          "name": "startLocation",
          "type": "string"
        },
        {
          "indexed": false,
          "internalType": "uint256",
          "name": "timestamp",
          "type": "uint256"
        }
      ],
      "name": "TripStored",
      "type": "event"
    },
    {
      "inputs": [
        {
          "internalType": "uint256",
          "name": "_tripId",
          "type": "uint256"
        }
      ],
      "name": "getTrip",
      "outputs": [
        {
          "internalType": "address",
          "name": "tripOwner",
          "type": "address"
        },
        {
          "internalType": "string",
          "name": "startLocation",
          "type": "string"
        },
        {
          "internalType": "string",
          "name": "endLocation",
          "type": "string"
        },
        {
          "internalType": "string",
          "name": "distance",
          "type": "string"
        },
        {
          "internalType": "string",
          "name": "avgRPM",
          "type": "string"
        },
        {
          "internalType": "string",
          "name": "avgSpeed",
          "type": "string"
        },
        {
          "internalType": "string",
          "name": "avgEngLoad",
          "type": "string"
        },
        {
          "internalType": "uint256",
          "name": "startTime",
          "type": "uint256"
        },
        {
          "internalType": "uint256",
          "name": "endTime",
          "type": "uint256"
        },
        {
          "internalType": "uint256",
          "name": "timestamp",
          "type": "uint256"
        }
      ],
      "stateMutability": "view",
      "type": "function"
    },
    {
      "inputs": [
        {
          "internalType": "string",
          "name": "_startLocation",
          "type": "string"
        },
        {
          "internalType": "string",
          "name": "_endLocation",
          "type": "string"
        },
        {
          "internalType": "string",
          "name": "_distance",
          "type": "string"
        },
        {
          "internalType": "string",
          "name": "_avgRPM",
          "type": "string"
        },
        {
          "internalType": "string",
          "name": "_avgSpeed",
          "type": "string"
        },
        {
          "internalType": "string",
          "name": "_avgEngLoad",
          "type": "string"
        },
        {
          "internalType": "uint256",
          "name": "_startTime",
          "type": "uint256"
        },
        {
          "internalType": "uint256",
          "name": "_endTime",
          "type": "uint256"
        }
      ],
      "name": "storeTrip",
      "outputs": [],
      "stateMutability": "nonpayable",
      "type": "function"
    },
    {
      "inputs": [],
      "name": "tripCounter",
      "outputs": [
        {
          "internalType": "uint256",
          "name": "",
          "type": "uint256"
        }
      ],
      "stateMutability": "view",
      "type": "function"
    },
    {
      "inputs": [
        {
          "internalType": "uint256",
          "name": "",
          "type": "uint256"
        }
      ],
      "name": "trips",
      "outputs": [
        {
          "internalType": "uint256",
          "name": "tripId",
          "type": "uint256"
        },
        {
          "internalType": "address",
          "name": "tripOwner",
          "type": "address"
        },
        {
          "internalType": "string",
          "name": "startLocation",
          "type": "string"
        },
        {
          "internalType": "string",
          "name": "endLocation",
          "type": "string"
        },
        {
          "internalType": "string",
          "name": "distance",
          "type": "string"
        },
        {
          "internalType": "string",
          "name": "avgRPM",
          "type": "string"
        },
        {
          "internalType": "string",
          "name": "avgSpeed",
          "type": "string"
        },
        {
          "internalType": "string",
          "name": "avgEngLoad",
          "type": "string"
        },
        {
          "internalType": "uint256",
          "name": "startTime",
          "type": "uint256"
        },
        {
          "internalType": "uint256",
          "name": "endTime",
          "type": "uint256"
        },
        {
          "internalType": "uint256",
          "name": "timestamp",
          "type": "uint256"
        }
      ],
      "stateMutability": "view",
      "type": "function"
    }
  ],
  "bytecode": "0x608060405234801561001057600080fd5b50610fee806100206000396000f3fe608060405234801561001057600080fd5b506004361061004c5760003560e01c8063010117051461005157806335e28c58146100835780636fa4ec2714610098578063f6824a7c146100af575b600080fd5b61006461005f366004610a82565b6100d9565b60405161007a9a99989796959493929190610ae1565b60405180910390f35b610096610091366004610c32565b61054f565b005b6100a160005481565b60405190815260200161007a565b6100c26100bd366004610a82565b6106f4565b60405161007a9b9a99989796959493929190610d3c565b600060608060608060608060008060008a60005481106101365760405162461bcd60e51b81526020600482015260146024820152732a3934b8103237b2b9903737ba1032bc34b9ba1760611b604482015260640160405180910390fd5b60008c815260016020818152604080842081516101608101835281548152938101546001600160a01b0316928401929092526002820180549184019161017b90610df2565b80601f01602080910402602001604051908101604052809291908181526020018280546101a790610df2565b80156101f45780601f106101c9576101008083540402835291602001916101f4565b820191906000526020600020905b8154815290600101906020018083116101d757829003601f168201915b5050505050815260200160038201805461020d90610df2565b80601f016020809104026020016040519081016040528092919081815260200182805461023990610df2565b80156102865780601f1061025b57610100808354040283529160200191610286565b820191906000526020600020905b81548152906001019060200180831161026957829003601f168201915b5050505050815260200160048201805461029f90610df2565b80601f01602080910402602001604051908101604052809291908181526020018280546102cb90610df2565b80156103185780601f106102ed57610100808354040283529160200191610318565b820191906000526020600020905b8154815290600101906020018083116102fb57829003601f168201915b5050505050815260200160058201805461033190610df2565b80601f016020809104026020016040519081016040528092919081815260200182805461035d90610df2565b80156103aa5780601f1061037f576101008083540402835291602001916103aa565b820191906000526020600020905b81548152906001019060200180831161038d57829003601f168201915b505050505081526020016006820180546103c390610df2565b80601f01602080910402602001604051908101604052809291908181526020018280546103ef90610df2565b801561043c5780601f106104115761010080835404028352916020019161043c565b820191906000526020600020905b81548152906001019060200180831161041f57829003601f168201915b5050505050815260200160078201805461045590610df2565b80601f016020809104026020016040519081016040528092919081815260200182805461048190610df2565b80156104ce5780601f106104a3576101008083540402835291602001916104ce565b820191906000526020600020905b8154815290600101906020018083116104b157829003601f168201915b505050505081526020016008820154815260200160098201548152602001600a82015481525050905080602001518160400151826060015183608001518460a001518560c001518660e001518761010001518861012001518961014001519b509b509b509b509b509b509b509b509b509b5050509193959799509193959799565b6040518061016001604052806000548152602001336001600160a01b031681526020018981526020018881526020018781526020018681526020018581526020018481526020018381526020018281526020014281525060016000805481526020019081526020016000206000820151816000015560208201518160010160006101000a8154816001600160a01b0302191690836001600160a01b0316021790555060408201518160020190816106069190610e7b565b506060820151600382019061061b9082610e7b565b50608082015160048201906106309082610e7b565b5060a082015160058201906106459082610e7b565b5060c0820151600682019061065a9082610e7b565b5060e0820151600782019061066f9082610e7b565b506101008201516008820155610120820151600982015561014090910151600a909101556000546040517f6854a5f305c8bcd0aa7f17938aaeb395d66a27c3a34fae60ff268203b7b83381916106ce9133908a9087908e904290610f3b565b60405180910390a16000805490806106e583610f91565b91905055505050505050505050565b60016020819052600091825260409091208054918101546002820180546001600160a01b03909216929161072790610df2565b80601f016020809104026020016040519081016040528092919081815260200182805461075390610df2565b80156107a05780601f10610775576101008083540402835291602001916107a0565b820191906000526020600020905b81548152906001019060200180831161078357829003601f168201915b5050505050908060030180546107b590610df2565b80601f01602080910402602001604051908101604052809291908181526020018280546107e190610df2565b801561082e5780601f106108035761010080835404028352916020019161082e565b820191906000526020600020905b81548152906001019060200180831161081157829003601f168201915b50505050509080600401805461084390610df2565b80601f016020809104026020016040519081016040528092919081815260200182805461086f90610df2565b80156108bc5780601f10610891576101008083540402835291602001916108bc565b820191906000526020600020905b81548152906001019060200180831161089f57829003601f168201915b5050505050908060050180546108d190610df2565b80601f01602080910402602001604051908101604052809291908181526020018280546108fd90610df2565b801561094a5780601f1061091f5761010080835404028352916020019161094a565b820191906000526020600020905b81548152906001019060200180831161092d57829003601f168201915b50505050509080600601805461095f90610df2565b80601f016020809104026020016040519081016040528092919081815260200182805461098b90610df2565b80156109d85780601f106109ad576101008083540402835291602001916109d8565b820191906000526020600020905b8154815290600101906020018083116109bb57829003601f168201915b5050505050908060070180546109ed90610df2565b80601f0160208091040260200160405190810160405280929190818152602001828054610a1990610df2565b8015610a665780601f10610a3b57610100808354040283529160200191610a66565b820191906000526020600020905b815481529060010190602001808311610a4957829003601f168201915b50505050509080600801549080600901549080600a015490508b565b600060208284031215610a9457600080fd5b5035919050565b6000815180845260005b81811015610ac157602081850181015186830182015201610aa5565b506000602082860101526020601f19601f83011685010191505092915050565b6001600160a01b038b16815261014060208201819052600090610b068382018d610a9b565b90508281036040840152610b1a818c610a9b565b90508281036060840152610b2e818b610a9b565b90508281036080840152610b42818a610a9b565b905082810360a0840152610b568189610a9b565b905082810360c0840152610b6a8188610a9b565b60e0840196909652505061010081019290925261012090910152979650505050505050565b634e487b7160e01b600052604160045260246000fd5b600082601f830112610bb657600080fd5b813567ffffffffffffffff80821115610bd157610bd1610b8f565b604051601f8301601f19908116603f01168101908282118183101715610bf957610bf9610b8f565b81604052838152866020858801011115610c1257600080fd5b836020870160208301376000602085830101528094505050505092915050565b600080600080600080600080610100898b031215610c4f57600080fd5b883567ffffffffffffffff80821115610c6757600080fd5b610c738c838d01610ba5565b995060208b0135915080821115610c8957600080fd5b610c958c838d01610ba5565b985060408b0135915080821115610cab57600080fd5b610cb78c838d01610ba5565b975060608b0135915080821115610ccd57600080fd5b610cd98c838d01610ba5565b965060808b0135915080821115610cef57600080fd5b610cfb8c838d01610ba5565b955060a08b0135915080821115610d1157600080fd5b50610d1e8b828c01610ba5565b93505060c0890135915060e089013590509295985092959890939650565b8b81526001600160a01b038b16602082015261016060408201819052600090610d678382018d610a9b565b90508281036060840152610d7b818c610a9b565b90508281036080840152610d8f818b610a9b565b905082810360a0840152610da3818a610a9b565b905082810360c0840152610db78189610a9b565b905082810360e0840152610dcb8188610a9b565b61010084019690965250506101208101929092526101409091015298975050505050505050565b600181811c90821680610e0657607f821691505b602082108103610e2657634e487b7160e01b600052602260045260246000fd5b50919050565b601f821115610e7657600081815260208120601f850160051c81016020861015610e535750805b601f850160051c820191505b81811015610e7257828155600101610e5f565b5050505b505050565b815167ffffffffffffffff811115610e9557610e95610b8f565b610ea981610ea38454610df2565b84610e2c565b602080601f831160018114610ede5760008415610ec65750858301515b600019600386901b1c1916600185901b178555610e72565b600085815260208120601f198616915b82811015610f0d57888601518255948401946001909101908401610eee565b5085821015610f2b5787850151600019600388901b60f8161c191681555b5050505050600190811b01905550565b8681526001600160a01b038616602082015260c060408201819052600090610f6590830187610a9b565b8560608401528281036080840152610f7d8186610a9b565b9150508260a0830152979650505050505050565b600060018201610fb157634e487b7160e01b600052601160045260246000fd5b506001019056fea264697066735822122050a72d69abf3de8f68b9e016203e71cabaa1d52a92db5536af673eca56942af564736f6c63430008130033",
  "linkReferences": {},
  "deployedLinkReferences": {}
}